{
  "_format": "hh-sol-artifact-1",
  "contractName": "Token",
  "sourceName": "contracts/Token.sol",
  "abi": [
    {
      "inputs": [],
      "stateMutability": "nonpayable",
      "type": "constructor"
    },
    {
      "inputs": [
        {
          "internalType": "address",
          "name": "account",
          "type": "address"
        }
      ],
      "name": "balanceOf",
      "outputs": [
        {
          "internalType": "uint256",
          "name": "",
          "type": "uint256"
        }
      ],
      "stateMutability": "view",
      "type": "function"
    },
    {
      "inputs": [],
      "name": "name",
      "outputs": [
        {
          "internalType": "string",
          "name": "",
          "type": "string"
        }
      ],
      "stateMutability": "view",
      "type": "function"
    },
    {
      "inputs": [],
      "name": "owner",
      "outputs": [
        {
          "internalType": "address",
          "name": "",
          "type": "address"
        }
      ],
      "stateMutability": "view",
      "type": "function"
    },
    {
      "inputs": [],
      "name": "symbol",
      "outputs": [
        {
          "internalType": "string",
          "name": "",
          "type": "string"
        }
      ],
      "stateMutability": "view",
      "type": "function"
    },
    {
      "inputs": [],
      "name": "totalSupply",
      "outputs": [
        {
          "internalType": "uint256",
          "name": "",
          "type": "uint256"
        }
      ],
      "stateMutability": "view",
      "type": "function"
    },
    {
      "inputs": [
        {
          "internalType": "address",
          "name": "to",
          "type": "address"
        },
        {
          "internalType": "uint256",
          "name": "amount",
          "type": "uint256"
        }
      ],
      "name": "transfer",
      "outputs": [],
      "stateMutability": "nonpayable",
      "type": "function"
    }
  ],
  "bytecode": "0x60806040526040518060400160405280600e81526020017f4d61697468616c6920546f6b656e000000000000000000000000000000000000815250600090816200004a9190620003cf565b506040518060400160405280600381526020017f4d4754000000000000000000000000000000000000000000000000000000000081525060019081620000919190620003cf565b506103e8600255348015620000a557600080fd5b5033600360006101000a81548173ffffffffffffffffffffffffffffffffffffffff021916908373ffffffffffffffffffffffffffffffffffffffff16021790555060025460046000600360009054906101000a900473ffffffffffffffffffffffffffffffffffffffff1673ffffffffffffffffffffffffffffffffffffffff1673ffffffffffffffffffffffffffffffffffffffff16815260200190815260200160002081905550620004b6565b600081519050919050565b7f4e487b7100000000000000000000000000000000000000000000000000000000600052604160045260246000fd5b7f4e487b7100000000000000000000000000000000000000000000000000000000600052602260045260246000fd5b60006002820490506001821680620001d757607f821691505b602082108103620001ed57620001ec6200018f565b5b50919050565b60008190508160005260206000209050919050565b60006020601f8301049050919050565b600082821b905092915050565b600060088302620002577fffffffffffffffffffffffffffffffffffffffffffffffffffffffffffffffff8262000218565b62000263868362000218565b95508019841693508086168417925050509392505050565b6000819050919050565b6000819050919050565b6000620002b0620002aa620002a4846200027b565b62000285565b6200027b565b9050919050565b6000819050919050565b620002cc836200028f565b620002e4620002db82620002b7565b84845462000225565b825550505050565b600090565b620002fb620002ec565b62000308818484620002c1565b505050565b5b81811015620003305762000324600082620002f1565b6001810190506200030e565b5050565b601f8211156200037f576200034981620001f3565b620003548462000208565b8101602085101562000364578190505b6200037c620003738562000208565b8301826200030d565b50505b505050565b600082821c905092915050565b6000620003a46000198460080262000384565b1980831691505092915050565b6000620003bf838362000391565b9150826002028217905092915050565b620003da8262000155565b67ffffffffffffffff811115620003f657620003f562000160565b5b620004028254620001be565b6200040f82828562000334565b600060209050601f83116001811462000447576000841562000432578287015190505b6200043e8582620003b1565b865550620004ae565b601f1984166200045786620001f3565b60005b8281101562000481578489015182556001820191506020850194506020810190506200045a565b86831015620004a157848901516200049d601f89168262000391565b8355505b6001600288020188555050505b505050505050565b6106a580620004c66000396000f3fe608060405234801561001057600080fd5b50600436106100625760003560e01c806306fdde031461006757806318160ddd1461008557806370a08231146100a35780638da5cb5b146100d357806395d89b41146100f1578063a9059cbb1461010f575b600080fd5b61006f61012b565b60405161007c91906103fc565b60405180910390f35b61008d6101b9565b60405161009a9190610437565b60405180910390f35b6100bd60048036038101906100b891906104b5565b6101bf565b6040516100ca9190610437565b60405180910390f35b6100db610208565b6040516100e891906104f1565b60405180910390f35b6100f961022e565b60405161010691906103fc565b60405180910390f35b61012960048036038101906101249190610538565b6102bc565b005b60008054610138906105a7565b80601f0160208091040260200160405190810160405280929190818152602001828054610164906105a7565b80156101b15780601f10610186576101008083540402835291602001916101b1565b820191906000526020600020905b81548152906001019060200180831161019457829003601f168201915b505050505081565b60025481565b6000600460008373ffffffffffffffffffffffffffffffffffffffff1673ffffffffffffffffffffffffffffffffffffffff168152602001908152602001600020549050919050565b600360009054906101000a900473ffffffffffffffffffffffffffffffffffffffff1681565b6001805461023b906105a7565b80601f0160208091040260200160405190810160405280929190818152602001828054610267906105a7565b80156102b45780601f10610289576101008083540402835291602001916102b4565b820191906000526020600020905b81548152906001019060200180831161029757829003601f168201915b505050505081565b80600460003373ffffffffffffffffffffffffffffffffffffffff1673ffffffffffffffffffffffffffffffffffffffff168152602001908152602001600020600082825461030b9190610607565b9250508190555080600460008473ffffffffffffffffffffffffffffffffffffffff1673ffffffffffffffffffffffffffffffffffffffff1681526020019081526020016000206000828254610361919061063b565b925050819055505050565b600081519050919050565b600082825260208201905092915050565b60005b838110156103a657808201518184015260208101905061038b565b60008484015250505050565b6000601f19601f8301169050919050565b60006103ce8261036c565b6103d88185610377565b93506103e8818560208601610388565b6103f1816103b2565b840191505092915050565b6000602082019050818103600083015261041681846103c3565b905092915050565b6000819050919050565b6104318161041e565b82525050565b600060208201905061044c6000830184610428565b92915050565b600080fd5b600073ffffffffffffffffffffffffffffffffffffffff82169050919050565b600061048282610457565b9050919050565b61049281610477565b811461049d57600080fd5b50565b6000813590506104af81610489565b92915050565b6000602082840312156104cb576104ca610452565b5b60006104d9848285016104a0565b91505092915050565b6104eb81610477565b82525050565b600060208201905061050660008301846104e2565b92915050565b6105158161041e565b811461052057600080fd5b50565b6000813590506105328161050c565b92915050565b6000806040838503121561054f5761054e610452565b5b600061055d858286016104a0565b925050602061056e85828601610523565b9150509250929050565b7f4e487b7100000000000000000000000000000000000000000000000000000000600052602260045260246000fd5b600060028204905060018216806105bf57607f821691505b6020821081036105d2576105d1610578565b5b50919050565b7f4e487b7100000000000000000000000000000000000000000000000000000000600052601160045260246000fd5b60006106128261041e565b915061061d8361041e565b9250828203905081811115610635576106346105d8565b5b92915050565b60006106468261041e565b91506106518361041e565b9250828201905080821115610669576106686105d8565b5b9291505056fea2646970667358221220ae3f8fe08ca37c26c28eb6c1722b3af6ac4a613d1c6045acba639133887ade6764736f6c63430008120033",
  "linkReferences": {},
  "deployedLinkReferences": {}
}